:020000040800F2
:10000000980A0020890100083D0C0008E70B000851
:10001000390C0008730200085517000800000000A2
:10002000000000000000000000000000ED0E0008CD
:10003000BD09000800000000D50D0008D90F000818
:10004000A3010008A3010008A3010008A301000800
:10005000A3010008A3010008250A0008370A0008C8
:10006000490A00085B0A0008A3010008A301000870
:10007000A3010008A3010008A3010008A3010008D0
:10008000A3010008A3010008A3010008A3010008C0
:1000900025170008A3010008A30100086D0A000845
:1000A000A3010008A3010008A3010008A3010008A0
:1000B000A30100083D10000805130008A301000873
:1000C000A3010008A3010008A3010008A301000880
:1000D000A30100089D140008A3010008A301000863
:1000E000A3010008A3010008A301000800F002F822
:1000F00000F03AF80AA090E8000C82448344AAF188
:100100000107DA4501D100F02FF8AFF2090EBAE885
:100110000F0013F0010F18BFFB1A43F0010318473B
:100120005021000070210000103A24BF78C878C127
:10013000FAD8520724BF30C830C144BF04680C60ED
:10014000704700000023002400250026103A28BF35
:1001500078C1FBD8520728BF30C148BF0B60704739
:100160001FB51FBD10B510BD00F031F81146FFF7E7
:10017000F7FF01F0F1FA00F04FF803B4FFF7F2FFD8
:1001800003BC00F057F800000948804709480047C1
:10019000FEE7FEE7FEE7FEE7FEE7FEE7FEE7FEE737
:1001A000FEE7FEE704480549054A064B7047000094
:1001B000DD0F0008ED00000898040020980A0020D8
:1001C00098060020980600207047704770477546D3
:1001D00000F02CF8AE4605006946534620F00700B3
:1001E000854618B020B5FFF7DDFFBDE820404FF091
:1001F00000064FF000074FF000084FF0000B21F011
:100200000701AC46ACE8C009ACE8C009ACE8C009DD
:10021000ACE8C0098D46704710B50446AFF30080C6
:100220002046BDE81040FFF7A8BF00000048704717
:100230003404002001491820ABBEFEE7260002006E
:10024000704708B54FF4A06000F032FD00F0CEFC1E
:100250004FF4165001F086FA0020042308220721EB
:10026000009000F075F941F61F41632001F01CF881
:1002700008BD00BFFEE70000B1F5007F3AD00FDCFB
:10028000202928D006DC01291CD004291DD00829EA
:1002900040D11DE0402921D0B1F5807F3AD126E040
:1002A000B1F5004F31D006DCB1F5806F25D0B1F546
:1002B000006F2FD124E0B1F5803F12D0B1F5003F9F
:1002C00028D111E0154A826025E00822C26022E0B0
:1002D0001022C2601FE0082202611CE010220261AD
:1002E00019E00822426016E01022426013E0042266
:1002F000426010E0042242600DE0042242600AE005
:10030000002282610422426005E000228261042210
:10031000426000E000BF00BF704700000101010023
:1003200010B50021837A012202FA03F13D4A1268D6
:1003300042F001023B4B1A603A4A1C3212688A436F
:10034000384B1C331A60027BCAB9364A0C32126829
:100350008A43344B0C331A604288C38842EA034311
:10036000304A4032847A42F834300288838842EA44
:1003700003432C4A4032847A02EBC4025360027B6E
:10038000012A19D1274A0C3212680A43254B0C3333
:100390001A604288038842EA0343224A4032847A40
:1003A00042F83430C288838842EA03431D4A40320F
:1003B000847A02EBC4025360C27A3AB9194A121D18
:1003C00012688A43174B1B1D1A6006E0154A121D5E
:1003D00012680A43134B1B1D1A60028932B9114A75
:1003E000143212688A430F4B14331A600289012AAF
:1003F00006D10C4A143212680A430A4B14331A60AD
:10040000427B012A06D1074A1C3212680A43054B77
:100410001C331A60034A126822F00102014B1A6071
:1004200010BD0000006600401AB143690B434361F0
:1004300002E043698B434361704730B502460020B8
:100440000023146824F002041460146844F00104CA
:10045000146000E05B1C546804F001041CB94FF602
:10046000FF74A342F6D1546804F001040CB90020D3
:100470006CE08C79012C04D1146844F08004146081
:1004800003E0146824F080041460CC79012C04D1BA
:10049000146844F04004146003E0146824F040043D
:1004A00014600C7A012C04D1146844F02004146008
:1004B00003E0146824F0200414604C7A012C04D169
:1004C000146844F01004146003E0146824F010046D
:1004D00014608C7A012C04D1146844F00804146070
:1004E00003E0146824F008041460CC7A012C04D1D1
:1004F000146844F00404146003E0146824F0040455
:1005000014608C78A407CD7844EA05640D7944EA38
:1005100005444D7944EA05540D886D1E2C43D46181
:10052000146824F001041460002300E05B1C54688C
:1005300004F001041CB14FF6FF74A342F6D15468D5
:1005400004F001040CB1002000E0012030BD0000E7
:100550002DE9F0418AB004460D4616461F46DDF8E7
:1005600040800121042000F047FC0121480600F0F2
:1005700033FC4FF48050ADF8240003208DF82600A2
:1005800018208DF8270009A92F4800F0A1FA4FF490
:100590000060ADF8240048208DF8270009A92A48FA
:1005A00000F096FA00208DF81E008DF81F008DF8DF
:1005B000200001208DF8210000208DF822008DF808
:1005C00023008DF81A808DF81B408DF81C608DF883
:1005D0001D50ADF8187006A91C48FFF72EFF00202B
:1005E0008DF812008DF8130001208DF81400002002
:1005F000ADF8080040F6B420ADF80A000020ADF8D0
:100600000C00ADF80E00ADF8100001208DF81500BB
:1006100002A8FFF785FE012202210C48FFF704FF24
:1006200014208DF8040002208DF8050000208DF8BC
:10063000060001208DF8070001A800F001FB002052
:100640000AB0BDE8F08100000008014000640040ED
:1006500010B500F5D87303EB01131B6803F0040316
:100660001372137A53B900F5D87303EB01131B68A7
:1006700040F2FF7404EA5353136009E000F5D873A5
:1006800003EB01131B686FF0604404EAD30353606B
:1006900000F5D87303EB01131B6803F002035372D8
:1006A00000F5D87303EB01135B6803F00F0393723B
:1006B00000F5D87303EB01135B681B0AD37400F5D4
:1006C000D87303EB01139B68D37200F5D87303EB67
:1006D00001139B681C0A147300F5D87303EB011314
:1006E0009B681C0C547300F5D87303EB01139B68D3
:1006F0001B0E937300F5D87303EB0113DB68D37300
:1007000000F5D87303EB0113DB681C0A147400F5C1
:10071000D87303EB0113DB681C0C547400F5D87319
:1007200003EB0113DB681B0E937421B9C36843F01C
:100730002003C36003E0036943F02003036110BD9D
:1007400010B502460020936803F08063B3F1806F18
:1007500000D110E0936803F00063B3F1006F01D1A2
:10076000012008E0936803F08053B3F1805F01D16A
:10077000022000E00420042874D002F5C07303EBCB
:1007800000131B6803F0010402F5C07303EB0013B0
:100790001C600B7A7BB94B7A0C8843EA445302F510
:1007A000C07404EB00142468234302F5C07404EB06
:1007B0000014236010E00B7A4C6843EAC4034C7ABF
:1007C000234302F5C07404EB00142468234302F5AC
:1007D000C07404EB001423608B7A03F00F038B7258
:1007E00002F5C07303EB00135B6823F00F0402F5FE
:1007F000C07303EB00135C6002F5C07303EB0013DE
:100800005B688C7A234302F5C07404EB00146360C8
:100810008B7B1C064B7B44EA03440B7B44EA03239B
:10082000CC7A234302F5C07404EB0014A3608B7CE4
:100830001C064B7C44EA03440B7C44EA0323CC7B38
:10084000234302F5C07404EB0014E36002F5C073A7
:1008500003EB00131B6843F0010402F5C07303EBC4
:1008600000131C6010BD000010B50246002321B12A
:10087000012907D002290FD109E090681D4C00EA38
:1008800004030BE090681C4C00EA040306E0906847
:100890001A4C00EA040301E0002300BF00BF184C1B
:1008A000181BA34216D007DC83B16FF08060184498
:1008B00070B1022818D111E0B0F5007F10D0114CB2
:1008C000204448B1B0F5003F0ED10BE002230DE00B
:1008D00000230BE0002309E0002307E0012305E0EB
:1008E000012303E0012301E0002300BF00BFD8B2D1
:1008F00010BD000003000004000300080000031006
:10090000000100080001FFF72DE9F04186B007461D
:100910008846154600240197002002908DF80C00AF
:100920008DF80D008DF80E5000BF06E018F8041089
:100930000DF10F000155601C84B2AC42F6DB01A939
:100940000D48FFF7FDFE0646002401E0601C84B25E
:1009500031460948FFF788FF18B940F6FF70844216
:10096000F4DB40F6FF70844203DB012006B0BDE8F3
:10097000F0810020FAE70000006400400C48007895
:10098000022807D00A480078032803D008480078D6
:10099000042806D10020074908600749C1F8A001D2
:1009A00005E00120034908600349C1F8A001704730
:1009B00000000020A48121420080214270470000F5
:1009C00070B505460C462146154800F0A6FE00BF4E
:1009D0008021134800F0D3FD0128F9D121461048A9
:1009E00000F09BFE00BF80210D4800F0C8FD0128EB
:1009F000F9D121460A4800F090FE00BF8021084846
:100A000000F0BDFD0128F9D12146054800F085FE22
:100A100000BF4021024800F0B2FD0128F9D170BDAD
:100A20000038014010B5012000F03EF810B101205F
:100A300000F034F810BD10B5022000F035F810B108
:100A4000022000F02BF810BD10B5042000F02CF8A7
:100A500010B1042000F022F810BD10B5082000F0FD
:100A600023F810B1082000F019F810BD08B5402097
:100A700000F01AF810B1402000F010F8802000F0CB
:100A800013F850B101200C232022102100900020E7
:100A900000F04CF9802000F001F808BD0149086021
:100AA0007047000014040140014600200022074B5B
:100AB0001B6803EA0102054B14331B680B4013B19A
:100AC0000AB1012000E0002070470000000401404E
:100AD0002DE9F041024600250026002000230024D5
:100AE000002791F803C00CF00F0591F803C00CF03B
:100AF000100CBCF1000F03D091F802C04CEA0505C0
:100B000091F800C0BCF1000F31D0146800202BE038
:100B10004FF0010C0CFA00F3B1F800C00CEA030628
:100B20009E4220D183004FF00F0C0CFA03F7BC4318
:100B300005FA03FC4CEA040491F803C0BCF1280F49
:100B400006D14FF0010C0CFA00FCC2F814C00AE008
:100B500091F803C0BCF1480F05D14FF0010C0CFA1D
:100B600000FCC2F810C0401C0828D1D31460B1F8B2
:100B700000C0BCF1FF0F34DD546800202EE000F10E
:100B8000080C4FF0010808FA0CF3B1F800C00CEAA9
:100B900003069E4221D183004FF00F0C0CFA03F79D
:100BA000BC4305FA03FC4CEA040491F803C0BCF111
:100BB000280F05D100F1080C08FA0CF8C2F81480CF
:100BC00091F803C0BCF1480F07D100F1080C4FF0B9
:100BD000010808FA0CF8C2F81080401C0828CED38F
:100BE0005460BDE8F08100BFFEE7000008B50121B8
:100BF000082000F001F94FF4C640ADF800001020C5
:100C00008DF8030001208DF8020069460748FFF7C0
:100C10005FFF0120064908600649C1F8B801044990
:100C2000103908600349C1F8A00108BD000C01405B
:100C3000B48121420080214200BFFEE770470000DE
:100C400070B5002100230F22C47804B3154C24682A
:100C500004F4E064C4F5E064210AC1F10403CA406D
:100C6000447804FA03F184781440214309010E4CBE
:100C70000678A155047804F01F050124AC400578DE
:100C80006D11AD0005F1E025C5F8004109E00478DB
:100C900004F01F050124AC40044D0678761145F898
:100CA000264070BD0CED00E000E400E080E100E0D3
:100CB00002490143024A1160704700000000FA0532
:100CC0000CED00E0F0B5144600267F2801DC3F293A
:100CD00000DDF0BD0B46CF1701EB5777FF10C7F1D2
:100CE0000707FAB2CF1701EB5777FF10A1EBC70741
:100CF000FDB2C5F107070123BB40DEB24CB10A4B80
:100D000003EBC0039B5C3343074F07EBC007BB54A7
:100D100008E0054B03EBC0039B5CB343024F07EBBA
:100D2000C007BB5400BFD4E7340000202DE9F04FCA
:100D300080460C4615461E46A346A5F12000C5B2C6
:100D400000273EE00C2E07D105EB45001F4901EBC3
:100D5000800010F8079004E01D4800EB051010F823
:100D600007904FF0000A26E009F0800028B12146E4
:100D70004046099AFFF7A6FF09E0099808B9012043
:100D800000E00020024621464046FFF79BFF4FEA65
:100D900049604FEA1069601CC4B2A4EB0B00B0427A
:100DA00005D15C4608F1010000F0FF0806E00AF1F9
:100DB000010000F0FF0ABAF1080FD5DB00BF781C74
:100DC000C7B2B742BEDBBDE8F08F00000C180008C8
:100DD000801C00087047000029B1064AD26902430E
:100DE000044BDA6104E0034AD2698243014BDA61C1
:100DF000704700000010024029B1064A9269024380
:100E0000044B9A6104E0034A92698243014B9A6160
:100E1000704700000010024030B50021002200247D
:100E200000232D4D6D6805F00C0121B1042905D07A
:100E3000082923D105E0294D056022E0274D0560F2
:100E40001FE0254D6D6805F47012234D6D6805F4A3
:100E50008034022505EB92421CB9214D55430560B3
:100E60000BE01D4D6D6805F400351DB11C4D55435B
:100E7000056002E0194D5543056002E0174D05601D
:100E800000BF00BF144D6D6805F0F0010909154D54
:100E90006B5C0568DD4045600F4D6D6805F4E061F1
:100EA000090A104D6B5C4568DD4085600A4D6D6830
:100EB00005F46051C90A0B4D6B5C4568DD40C560A7
:100EC000054D6D6805F44041890B074D6B5CC568A5
:100ED000B5FBF3F5056130BD0010024000127A0049
:100EE00000093D000100002011000020704710B5EE
:100EF00000F002F810BD00000CB500200190009039
:100F00003348006840F480303149086000BF304801
:100F1000006800F4003000900198401C0190009897
:100F200018B90198B0F5A06FF1D12948006800F414
:100F3000003010B10120009001E0002000900098E6
:100F4000012843D12348006840F01000214908607F
:100F50000846006820F0030008600846006840F07A
:100F6000020008601A48406819494860084640680D
:100F700048600846406840F4806048600846406821
:100F800020F47C1048600846406840F4E81048604F
:100F90000846006840F08070086000BF0C48006898
:100FA00000F000700028F9D00948406820F00300E4
:100FB000074948600846406840F00200486000BFAA
:100FC0000348406800F00C000828F9D10CBD00006F
:100FD00000100240002002407047000010B5134886
:100FE000006840F001001149086008464068104957
:100FF00008400E494860084600680E4908400B4901
:1010000008600846006820F48020086008464068B0
:1010100020F4FE0048604FF41F008860FFF767FF70
:101020004FF000600449086010BD0000001002404D
:101030000000FFF8FFFFF6FE08ED00E01CB50121FF
:10104000894800F092F900287ED088480078401C3A
:101050008649087086480078401C85490870854894
:101060000078401C8349087083480078002804DD1C
:1010700081480078401E804908707C48007809212A
:1010800090FBF1F201FB120000284BD17B48007865
:10109000012806D0022808D003280AD0042810D13D
:1010A0000BE000208DF800000FE0A8208DF8000074
:1010B0000BE0F8208DF8000007E0D0208DF800004C
:1010C00003E000208DF8000000BF00BF6C480078EE
:1010D00010B100206749087066480078282811DDA3
:1010E00068480078012806D19DF80000C01CC0B2F5
:1010F0008DF8000010E09DF80000401CC0B28DF893
:10110000000009E05F480078012805D19DF8000043
:10111000801CC0B28DF800000122694640F2171011
:10112000FFF7F2FB5848007801284DD15748007866
:10113000012849D150480078002845D1514800780D
:10114000F0BB4E48007800E08CE0012806D0022871
:1011500006D0032806D0042808D105E0AB2407E018
:10116000CC2405E0662403E03F2401E0AB2400BF6B
:1011700000BF214644F67A60FFF722FC444800781D
:10118000032809DB012041490870424908704248A0
:101190000078401C404908700020354908703C48E0
:1011A0000078401C3A49087008460078042802DAA2
:1011B00005203149087036480078042804DB00E037
:1011C00002E000203249087029480078642808DBD2
:1011D00001202A49087000202E4908700120294961
:1011E00008702848007820B12C480078401C2B4912
:1011F00008702A480078962806DD002021490870EA
:101200001B490870254908702248007870B12248AF
:10121000007801280ADB0020214908601E49087077
:1012200001201A49087000201749087019480078F1
:1012300010B901201A4908600C480078322803D000
:101240000A480078642806D11548001F0068C0438A
:101250001449C1F8B40100F0F5F80121024800F08A
:1012600075F800BF1CBD0000000400401B000020FA
:101270001C00002025000020170000200000002096
:10128000300000201E000020160000201D0000205D
:10129000270000202400002023000020260000203A
:1012A000B8812142008021427FB505460C460121CC
:1012B0000220FFF791FDADF80850ADF80440002082
:1012C000ADF80A00ADF8060001A90D4800F068F875
:1012D000012211460A4800F059F81D208DF800003F
:1012E00000208DF8010001208DF802008DF8030028
:1012F0006846FFF7A5FC0121014800F02AF87FBDF0
:101300000004004010B501210D4800F02EF890B106
:101310000C48007828B10B480078401E0949087035
:1013200009E00020084908600021054800F011F894
:101330000020044908700121014800F007F810BDA1
:10134000000800401A000020B0012142CA43028276
:10135000704721B1028842F00102028004E0028855
:101360004FF6FE731A400280704730B502460020E7
:1013700000230024158A05EA0103958905EA010482
:1013800013B10CB1012000E0002030BD1AB18389F7
:101390000B43838102E083898B4383817047000084
:1013A000002202881D4B98420ED01D4B98420BD054
:1013B000B0F1804F08D01B4B984205D01A4B984291
:1013C00002D01A4B984204D14FF68F731A404B88C3
:1013D0001A43174B984207D0164B984204D04FF649
:1013E000FF431A40CB881A4302808B8883850B8881
:1013F00003850A4B98420BD0094B984208D00E4BFC
:10140000984205D00D4B984202D00D4B984201D125
:101410000B7A03860123838270470000002C014071
:10142000003401400004004000080040000C00406F
:101430000010004000140040004001400044014002
:101440000048014011480078642802DB00200F4961
:1014500008700F480078401C0D4908700846007855
:101460003C2806DB002008700A480078401C094927
:101470000870084800783C2807DB00200549087000
:1014800005480078401C0449087070471B00002084
:1014900020000020210000202200002070B540F232
:1014A0002551264800F078F8002845D0234800F060
:1014B0002FF9C5B20120224908702C11214800786B
:1014C000012835D00A2C06D00B2C0ED00C2C16D0AF
:1014D0000D2C28D11DE001201B49087000201B495C
:1014E000087001201A49087021E00220164908708E
:1014F00000201649087001201549087017E00320E4
:101500001149087000201149087001201049087025
:101510000DE004200C49087000200C4908700120DF
:101520000B49087003E000200949087000BF00BFA4
:101530002021024800F00EF870BD00000038014084
:101540001D0000201E000020000000201C000020C4
:101550001600002001F40072B2F5007F00D100BF38
:10156000CA430280704721B1828942F400528281CD
:1015700004E082894DF6FF731A408281704702466B
:101580000020B1F5007F00D100BF13880B400BB1E4
:10159000012000E00020704770B5024600240023BF
:1015A0000025002040F66A16B14200D100BFC1F309
:1015B000421501F01F03012606FA03F3012D02D1A3
:1015C0009689334006E0022D02D1168A334001E0AD
:1015D000968A33400C12012606FA04F41688344029
:1015E00013B10CB1012000E0002070BDF0B503463E
:1015F000002400260025002040F66A17B94200D1D9
:1016000000BF1846C1F3421401F01F06012707FA74
:1016100006F5012C01D10C3004E0022C01D1103070
:1016200000E014301AB107682F43076002E0076832
:10163000AF430760F0BD00002DE9F04786B00546D6
:101640000E460024A24600BFA1460027B08900B183
:1016500000BF2F462C8A4CF6FF700440F0880443EC
:101660002C82AC894EF6F3100440B08831890843CF
:10167000718908430443AC81AC8A4FF6FF400440B3
:10168000B0890443AC8201A8FFF7C6FB1F4887421C
:1016900002D1DDF810A001E0DDF80CA0A88900F46B
:1016A000004040B10AEBCA0000EB0A103168490063
:1016B000B0FBF1F807E00AEBCA0000EB0A10316852
:1016C0008900B0FBF1F86420B8FBF0F004012009B8
:1016D000642101FB1089A88900F4004040B1322048
:1016E00000EBC900B0FBF1F000F00700044308E094
:1016F000322000EB09106421B0FBF1F000F00F0084
:1017000004432C8106B0BDE8F0870000003801409A
:1017100001468888C0F308007047C1F30802828040
:101720007047000000B585B06A4600210748FEF703
:101730008FFF0098B0F5AB7F02D1012004490870FB
:1017400002210248FEF798FD05B000BD006400408C
:101750003000002000BFFEE7FEF773FD01E0FFF759
:101760000DF9FCE710B586B00446012144F20400EF
:10177000FFF742FB4FF40070ADF8140003208DF822
:10178000160018208DF8170005A91E48FFF7A0F9CC
:101790004FF48060ADF8140003208DF8160004208B
:1017A0008DF8170005A91748FFF792F925208DF845
:1017B000000000208DF801008DF8020001208DF856
:1017C00003006846FFF73CFA01940020ADF80800DA
:1017D000ADF80A00ADF80C00ADF810000C20ADF823
:1017E0000E0001A90848FFF727FF012240F225510A
:1017F0000548FFF7FBFE01210348FFF7B4FE06B0E2
:1018000010BD000000080140003801400000000049
:101810000000000000000000000000003F40000049
:1018200000000000000030004000300040000000D8
:1018300009000BC03D000BC03D00090018C024404A
:101840007FE0224031800000180024C01B000D8082
:101850003240018003801C4027401C80074000402C
:101860001000600000000000000000000000000008
:1018700000001F80204040200000402020401F80AA
:1018800000000000090006001F800600090000009B
:10189000040004003F800400040000000010006009
:1018A0000000000000000000040004000400040028
:1018B00004000000000000400000000000000000E4
:1018C000002001C006003800400000001F802040BA
:1018D000204020401F800000000010403FC000401A
:1018E0000000000018C021402240244018400000A1
:1018F00010802040244024401B80000002000D0086
:1019000011003FC0014000003C802440244024409E
:10191000238000001F8024402440344003800000C6
:101920003000200027C03800200000001B80244029
:10193000244024401B8000001C0022C02240224082
:101940001F800000000000000840000000000000B0
:10195000000000000460000000000000000004001F
:101960000A00110020804040090009000900090018
:101970000900000000004040208011000A0004001F
:101980001800200023402400180000001F80204081
:10199000274029401F400000004007C039000F00C9
:1019A00001C0004020403FC0244024401B80000074
:1019B0001F802040204020403080000020403FC059
:1019C000204020401F80000020403FC024402E4087
:1019D00030C0000020403FC024402E0030000000F6
:1019E0000F001080204022403380020020403FC082
:1019F000040004003FC02040204020403FC0204061
:101A0000204000000060202020203FC02000200057
:101A100020403FC024400B0030C0204020403FC049
:101A200020400040004000C03FC03C0003C03C00DC
:101A30003FC0000020403FC00C4023003FC02000BA
:101A40001F802040204020401F80000020403FC0D9
:101A500024402400180000001F802140214020E085
:101A60001FA0000020403FC02440260019C00040B5
:101A700018C0244024402240318000003000204023
:101A80003FC020403000000020003F800040004068
:101A90003F80200020003E0001C0070038002000E9
:101AA000380007C03C0007C038000000204039C0A3
:101AB000060039C0204000002000384007C03840F0
:101AC00020000000304021C02640384020C00000E7
:101AD000000000007FE04020402000000000700077
:101AE0000C000380004000000000402040207FE008
:101AF0000000000000002000400020000000000066
:101B00000010001000100010001000100000000075
:101B10004000000000000000000002800540054079
:101B200003C0004020003FC0044004400380000088
:101B300000000380044004400640000000000380D1
:101B4000044024403FC000400000038005400540A1
:101B500003400000000004401FC024402440200037
:101B6000000002E0055005500650042020403FC010
:101B70000440040003C000400000044027C00040AF
:101B80000000000000100010041027E0000000001A
:101B900020403FC00140070004C0044020402040D6
:101BA0003FC000400040000007C0040007C0040020
:101BB00003C00000044007C00440040003C000400C
:101BC000000003800440044003800000041007F07C
:101BD00004500440038000000000038004400450CF
:101BE00007F00010044007C0024004000400000099
:101BF000000006400540054004C00000000004004D
:101C00001F800440004000000400078000400440A2
:101C100007C000400400070004C001800600040063
:101C2000060001C0070001C006000000044006C015
:101C3000010006C0044000000410071004E0018009
:101C4000060004000000044005C0064004400000F7
:101C50000000000004007BE04020000000000000C5
:101C60000000FFF000000000000040207BE00400C6
:101C700000000000400080004000200020004000E4
:101C80000000000000000000000000000000000054
:101C90000000000000001FCC000C0000000000004D
:101CA0000000080030006000080030006000000004
:101CB000022003FC1E20022003FC1E200220000044
:101CC00000000E1811043FFF10840C780000000083
:101CD0000F0010840F3800C00778188400780000C7
:101CE00000780F8410C411240E9800E400840008CA
:101CF0000800680070000000000000000000000004
:101D000000000000000007E0181820044002000056
:101D1000000040022004181807E000000000000046
:101D20000240024001800FF00180024002400000AA
:101D30000080008000800FF800800080008000009C
:101D40000001000D000E0000000000000000000077
:101D50000000008000800080008000800080008003
:101D60000000000C000C000000000000000000005B
:101D70000000000600180060018006001800200026
:101D8000000007F0080810041004080807F000001D
:101D90000000080408041FFC000400040000000008
:101DA00000000E0C10141024104411840E0C0000BE
:101DB00000000C1810041104110412880C700000AB
:101DC000000000E00320042408241FFC002400007D
:101DD00000001F9810841104110410881070000076
:101DE000000007F008881104110418880070000032
:101DF00000001C00100010FC13001C00100000006C
:101E000000000E3811441084108411440E38000074
:101E100000000700088C10441044088807F00000F8
:101E2000000000000000030C030C00000000000094
:101E3000000000000001010600000000000000009A
:101E40000000008001400220041008081004000077
:101E50000220022002200220022002200220000094
:101E60000000100408080410022001400080000057
:101E700000000E001200100C106C10800F0000000B
:101E800003E00C1813E4142417C4082807D000003A
:101E90000004003C03C41C40074000E4001C000494
:101EA00010041FFC1104110411040E8800700000BE
:101EB00003E00C1810041004100410081C1000009B
:101EC00010041FFC100410041004080807F00000A0
:101ED00010041FFC1104110417C41004081800009A
:101EE00010041FFC1104110017C0100008000000AE
:101EF00003E00C181004100410441C78004000008B
:101F000010041FFC10840080008010841FFC10044B
:101F10000000100410041FFC100410040000000056
:101F200000030001100110011FFE1000100000004E
:101F300010041FFC110403801464181C100400001A
:101F400010041FFC1004000400040004000C000036
:101F500010041FFC1F0000FC1F001FFC10040000E9
:101F600010041FFC0C04030000E010181FFC1000FC
:101F700007F00808100410041004080807F0000017
:101F800010041FFC10841080108010800F000000CF
:101F900007F0081810241024101C080A07F200008B
:101FA00010041FFC1104110011C011300E0C0004AC
:101FB00000000E1C11041084108410441C38000012
:101FC0001800100010041FFC10041000180000007E
:101FD00010001FF810040004000410041FF8100083
:101FE00010001E0011E0001C007013801C00100087
:101FF0001FC0103C00E01F0000E0103C1FC00000AC
:102000001004180C163401C001C01634180C10044A
:1020100010001C00130400FC13041C00100000003E
:102020000804101C1064108413041C041018000011
:102030000000000000007FFE40024002400200005D
:10204000000030000C0003800060001C0003000052
:1020500000004002400240027FFE0000000000003D
:102060000000000020004000400040002000000070
:102070000001000100010001000100010001000158
:1020800000004000400020000000000000000000B0
:1020900000000098012401440144014400FC0004B4
:1020A00010001FFC0088010401040088007000007B
:1020B0000000007000880104010401040088000091
:1020C0000000007000880104010411081FFC0004D6
:1020D000000000F8014401440144014400C800002C
:1020E0000000010401040FFC110411041100180088
:1020F000000000D601290129012901C901060000BB
:1021000010041FFC008401000100010400FC000415
:1021100000000104190419FC000400040000000080
:102120000000000300010101190119FE0000000078
:1021300010041FFC0024004001B4010C0104000045
:102140000000100410041FFC000400040000000044
:10215000010401FC0104010001FC0104010000FC78
:10216000010401FC008401000100010400FC0004E2
:10217000000000F8010401040104010400F800005B
:10218000010101FF008501040104008800700000C6
:1021900000000070008801040104010501FF000136
:1021A0000104010401FC008401040100018000001D
:1021B000000000CC01240124012401240198000026
:1021C00000000100010007F8010401040000000004
:1021D000010001F8000400040004010801FC0004EF
:1021E000010001800170000C0010016001800100FD
:1021F00001F0010C003001C00030010C01F00100C1
:1022000000000104018C00740170018C01040000C5
:10221000010101810171000E0018016001800100BF
:1022200000000184010C013401440184010C000010
:10223000000000000000000001003EFC40024002DF
:102240000000000000000000FFFF00000000000090
:102250000000400240023EFC0100000000000000BF
:10226000000060008000800040004000200020004E
:10227000902200080000002034000000280100081F
:10228000C422000834000020640A00004401000851
:102290000100000000010203040102030406070814
:1022A0000902040608000000000000000000000011
:1022B000000000000000000000000000000000001E
:0422C000000000001A
:04000005080000ED02
:00000001FF
