:020000040800F2
:10000000E8060020890100088D0C0008630B000839
:10001000890C0008A305000827170008000000004D
:100020000000000000000000000000004D0E00086D
:100030003108000800000000150D0008610F0008DD
:10004000A3010008A3010008A3010008A301000800
:10005000A3010008A3010008A1080008A3010008EB
:10006000A3010008B508000801090008A301000861
:10007000A3010008A3010008A3010008A3010008D0
:10008000A3010008A3010008A3010008A3010008C0
:10009000A3010008A3010008A3010008A3010008B0
:1000A000A3010008A3010008A3010008A3010008A0
:1000B000A3010008C50F000879130008A301000878
:1000C000A3010008A3010008A3010008A301000880
:1000D000A301000825150008A3010008A3010008DA
:1000E000A3010008A3010008A301000800F002F822
:1000F00000F03AF80AA090E8000C82448344AAF188
:100100000107DA4501D100F02FF8AFF2090EBAE885
:100110000F0013F0010F18BFFB1A43F0010318473B
:10012000AC1A0000CC1A0000103A24BF78C878C17D
:10013000FAD8520724BF30C830C144BF04680C60ED
:10014000704700000023002400250026103A28BF35
:1001500078C1FBD8520728BF30C148BF0B60704739
:100160001FB51FBD10B510BD00F033F81146FFF7E5
:10017000F7FF01F025FB00F051F803B4FFF7F2FFA1
:1001800003BC01F0D2FA0000094880470948004743
:10019000FEE7FEE7FEE7FEE7FEE7FEE7FEE7FEE737
:1001A000FEE7FEE704480549054A064B7047000094
:1001B000650F0008ED000008E8000020E8060020B8
:1001C000E8020020E802002070477047704770473F
:1001D0007047754600F02CF8AE4605006946534658
:1001E00020F00700854618B020B5FFF7DBFFBDE81B
:1001F00020404FF000064FF000074FF000084FF08E
:10020000000B21F00701AC46ACE8C009ACE8C0091E
:10021000ACE8C009ACE8C0098D46704710B504468B
:10022000AFF300802046BDE81040FFF7A6BF0000F6
:10023000004870478800002021B1826842F0010226
:10024000826003E0826822F001028260704721B17F
:10025000826842F48072826003E0826822F48072D5
:1002600082607047014600208A6802F004020AB1E9
:10027000012000E000207047014600208A6802F05B
:1002800008020AB1012000E00020704730B50246A4
:100290000020002350680F4C20400D790C6844EA80
:1002A00005242043506090680B4C2040D1E9025453
:1002B0002C434D7944EA450420439060D06A20F4F1
:1002C00070000C7C641EE4B2234340EA0350D06209
:1002D00030BD0000FFFEF0FFFDF7F1FFF0B5044672
:1002E0000D4600200021092D11DDE068A5F10A0668
:1002F00006EB4607072606FA07F18843A5F10A062A
:1003000006EB460603FA06F10843E0600CE02069BC
:1003100005EB4507072606FA07F1884305EB450676
:1003200003FA06F108432061072A0FDA606B561EB4
:1003300006EB86071F2606FA07F18843561E06EBD2
:10034000860605FA06F10843606322E00D2A0FDAFB
:10035000206BD61F06EB86071F2606FA07F1884397
:10036000D61F06EB860605FA06F10843206310E067
:10037000E06AA2F10D0606EB86071F2606FA07F1D2
:100380008843A2F10D0606EB860605FA06F108433E
:10039000E062F0BD816841F008018160704721B1E1
:1003A000826842F4A002826003E0826822F4A00224
:1003B00082607047816841F00401816070470000ED
:1003C00010B5002039E000221F4B43F820201F4ABF
:1003D00032F8102000EB40031D4C04EB83031D4C4E
:1003E000245C23F814201B4A125C521C194B1A542B
:1003F0001A46125C062A01DB00221A5400210FE083
:1004000000EB4002124B03EB820232F811200E4B3C
:1004100053F820301A440C4B43F820204A1CD1B228
:100420000629EDDB084A52F820200623B2FBF3F23E
:10043000094B23F81020421CD0B20028C3DD064A25
:100440001288064B1A8010BD4C0000204800002086
:100450007C000020500000204A0000200200002004
:1004600008B54FF4165001F0B1F901210C2000F04D
:1004700073FC4FF40040ADF8000010208DF803002D
:1004800001208DF802006946174800F0DFFA4FF4AA
:100490008070ADF8000010208DF8030001208DF869
:1004A00002006946114800F0D1FA002010490860A6
:1004B0001049C1F8A0010121042000F04DFC4FF4C7
:1004C0000060ADF8000004208DF8030001208DF8D5
:1004D00002006946054800F0B9FA00BF0648006806
:1004E0000028FBD008BD0000000C014000080140BE
:1004F000BC812142000021422C01214270B50546F9
:100500000C462146154801F00AF900BF4021134866
:1005100001F037F80128F9D12146104801F0FFF821
:1005200000BF40210D4801F02CF80128F9D12146E7
:100530000A4801F0F4F800BF4021084801F021F812
:100540000128F9D12146054801F0E9F800BF402112
:10055000024801F016F80128F9D170BD00380140B9
:1005600010B501F0E5F8022000F0FEFA012000F0DD
:10057000FBFA4FF4A06000F0C3FB00F06FFB00F04B
:1005800059F900F009FB00F00FF8FFF769FF4FF48D
:10059000A07001F0EFF841F61F41632000F0BEFEAD
:1005A00010BD00BFFEE7000000B591B00121084674
:1005B00000F0B2FB0121480200F0CEFB314800F010
:1005C00073F83148019031480290002003900120D7
:1005D0000490002005908020069040000790800045
:1005E00008902020099000020A9000200B9001A999
:1005F000244800F0FFF80121224800F049F80020CB
:100600000C9001208DF834008DF835004FF46020F7
:100610000E9000200F9001208DF840000CA91A4880
:100620004C38FFF733FE07230122002116484C38CF
:10063000FFF754FE012114484C38FFF708FE012152
:1006400011484C38FFF7F8FD0F484C38FFF7A2FE71
:1006500000BF0D484C38FFF70FFE0028F9D10A48BB
:100660004C38FFF7A7FE00BF07484C38FFF7FAFDEC
:100670000028F9D1012104484C38FFF790FE11B051
:1006800000BD0000080002404C240140480000204A
:1006900021B1026842F00102026004E002684FF6F4
:1006A000FE731A400260704701684FF6FE721140F7
:1006B00001600021016041608160C1604B49884256
:1006C00008D14A490839496841F00F01474A083AB8
:1006D00051608AE045491431884208D143490839BC
:1006E000496841F0F001414A083A51607DE03F49D4
:1006F0002831884208D13D490839496841F4706180
:100700003A4A083A516070E038493C31884208D191
:1007100036490839496841F47041344A083A516011
:1007200063E032495031884208D13049083949687C
:1007300041F470212D4A083A516056E02B4964314A
:10074000884208D129490839496841F47001274A8B
:10075000083A516049E025497831884208D1234957
:100760000839496841F07061204A083A51603CE01C
:100770001F49884206D1011F096841F00F01021F7D
:10078000116032E01A491431884208D11849091F12
:10079000096841F0F001164A121F116025E0144962
:1007A0002831884208D11249091F096841F4706153
:1007B0000F4A121F116018E00D493C31884208D1E0
:1007C0000B49091F096841F47041094A121F116061
:1007D0000BE007495031884207D10549091F0968D4
:1007E00041F47021024A121F116070470800024054
:1007F0000804024010B50022026847F6F0739A43DD
:100800000C6A8B6823430C6923434C6923438C692E
:100810002343CC6923434C6A23438C6A23431A4302
:100820000260CB6843600B6883604B68C36010BD97
:100830007047000008B50121042000F08DFA7820EF
:10084000ADF8000010208DF8030001208DF80200A3
:100850006946024800F0FAF808BD000000080140AF
:100860002DE9F0410A48008801F035F80546094AAB
:10087000094B01F043F8074600F0FCFF0446204610
:1008800001F03AF9001D05490880BDE8F08100003B
:1008900002000020D942908312669A3F6200002035
:1008A00010B5012000F054F810B1012000F04AF812
:1008B00010BD000010B5082000F04AF8C8B10120B2
:1008C00000F058FF0B480068012809D10A49087058
:1008D0000A480078042809D103200849087005E077
:1008E0000448006810B9002003490870082000F08F
:1008F00029F810BD0C81214256000020180000206C
:1009000010B5102000F024F8B0B1012000F032FF43
:100910000A480068012802D10949087009E007481F
:10092000006830B906480078032802D00220044944
:100930000870102000F006F810BD00001081214260
:1009400018000020014908607047000014040140AD
:10095000014600200022074B1B6803EA0102054BF9
:1009600014331B680B4013B10AB1012000E00020D2
:100970007047000000040140002123498279002AC9
:100980003AD00A46126803689A430B461A600A1D59
:10099000126803689A430B1D1A60027911440A68B1
:1009A00003681A430A60184A0832126803689A43B7
:1009B000154B08331A601A1D126803689A43124BCC
:1009C0000C331A604279102A0ED11A1F126803687C
:1009D0001A430D4B08331A601A1D126803681A4334
:1009E000094B0C331A600DE00749427911440A683B
:1009F00003681A430A6005E0027911440A68036833
:100A00009A430A60704700000004014030B500229C
:100A10008B071C0F0F2303FA04F20B4B8C1053F8B7
:100A200024309343084C8D1044F8253023468C1015
:100A300053F824308C07240F00FA04F42343024CAB
:100A40008D1044F8253030BD080001402DE9F041FB
:100A5000024600250026002000230024002791F8EC
:100A600003C00CF00F0591F803C00CF0100CBCF1A2
:100A7000000F03D091F802C04CEA050591F800C0C0
:100A8000BCF1000F31D0146800202BE04FF0010CB6
:100A90000CFA00F3B1F800C00CEA03069E4220D124
:100AA00083004FF00F0C0CFA03F7BC4305FA03FC6C
:100AB0004CEA040491F803C0BCF1280F06D14FF0B2
:100AC000010C0CFA00FCC2F814C00AE091F803C053
:100AD000BCF1480F05D14FF0010C0CFA00FCC2F834
:100AE00010C0401C0828D1D31460B1F800C0BCF17C
:100AF000FF0F34DD546800202EE000F1080C4FF0A9
:100B0000010808FA0CF3B1F800C00CEA03069E4293
:100B100021D183004FF00F0C0CFA03F7BC4305FA08
:100B200003FC4CEA040491F803C0BCF1280F05D182
:100B300000F1080C08FA0CF8C2F8148091F803C010
:100B4000BCF1480F07D100F1080C4FF0010808FA7A
:100B50000CF8C2F81080401C0828CED35460BDE8C1
:100B6000F08100BFFEE7000001464906084A92698D
:100B700042F00102064B9A61064A526822F0E06296
:100B8000044B5A601A4652680A435A607047000084
:100B900000100240000001401FB50121084600F08E
:100BA000DBF80121082000F0D7F80820ADF80C0090
:100BB00048208DF80F0003A92748FFF747FF0321BE
:100BC0000120FFF723FF1020ADF80C0048208DF81E
:100BD0000F0003A92048FFF739FF04210020FFF789
:100BE00015FF0820019000208DF8080010208DF8D6
:100BF000090001208DF80A0001A8FFF7BDFE1020B2
:100C0000019000208DF8080010208DF809000120C7
:100C10008DF80A0001A8FFF7AFFE07208DF800004D
:100C200002208DF8010000208DF8020001208DF8CF
:100C30000300684600F02CF808208DF80000022020
:100C40008DF8010000208DF8020001208DF80300CE
:100C5000684600F01DF81FBD000C014008B50121D9
:100C6000082000F079F87820ADF8000010208DF809
:100C7000030001208DF8020069460248FFF7E6FEF6
:100C800008BD0000000C014000BFFEE770470000F7
:100C900070B5002100230F22C47804B3154C2468DA
:100CA00004F4E064C4F5E064210AC1F10403CA401D
:100CB000447804FA03F184781440214309010E4C6E
:100CC0000678A155047804F01F050124AC4005788E
:100CD0006D11AD0005F1E025C5F8004109E004788B
:100CE00004F01F050124AC40044D0678761145F848
:100CF000264070BD0CED00E000E400E080E100E083
:100D000002490143024A1160704700000000FA05E1
:100D10000CED00E07047000029B1064A5269024319
:100D2000044B5A6104E0034A52698243014B5A6101
:100D3000704700000010024029B1064AD269024300
:100D4000044BDA6104E0034AD2698243014BDA6161
:100D5000704700000010024029B1064A9269024320
:100D6000044B9A6104E0034A92698243014B9A6101
:100D7000704700000010024030B50021002200241E
:100D800000232D4D6D6805F00C0121B1042905D01B
:100D9000082923D105E0294D056022E0274D056093
:100DA0001FE0254D6D6805F47012234D6D6805F444
:100DB0008034022505EB92421CB9214D5543056054
:100DC0000BE01D4D6D6805F400351DB11C4D5543FC
:100DD000056002E0194D5543056002E0174D0560BE
:100DE00000BF00BF144D6D6805F0F0010909154DF5
:100DF0006B5C0568DD4045600F4D6D6805F4E06192
:100E0000090A104D6B5C4568DD4085600A4D6D68D0
:100E100005F46051C90A0B4D6B5C4568DD40C56047
:100E2000054D6D6805F44041890B074D6B5CC56845
:100E3000B5FBF3F5056130BD0010024000127A00E9
:100E400000093D001A0000202A000020704710B55C
:100E500000F002F810BD00000CB5002001900090D9
:100E60003348006840F480303149086000BF3048A2
:100E7000006800F4003000900198401C0190009838
:100E800018B90198B0F5A06FF1D12948006800F4B5
:100E9000003010B10120009001E000200090009887
:100EA000012843D12348006840F010002149086020
:100EB0000846006820F0030008600846006840F01B
:100EC000020008601A4840681949486008464068AE
:100ED00048600846406840F48060486008464068C2
:100EE00020F47C1048600846406840F4E8104860F0
:100EF0000846006840F08070086000BF0C48006839
:100F000000F000700028F9D00948406820F0030084
:100F1000074948600846406840F00200486000BF4A
:100F20000348406800F00C000828F9D10CBD00000F
:100F30000010024000200240042808D14FF0E021B8
:100F4000096941F004014FF0E022116107E04FF020
:100F5000E021096921F004014FF0E022116170479E
:100F60007047000010B51348006840F001001149B7
:100F7000086008464068104908400E494860084625
:100F800000680E4908400B4908600846006820F4D4
:100F9000802008600846406820F4FE0048604FF456
:100FA0001F008860FFF753FF4FF00060044908609E
:100FB00010BD0000001002400000FFF8FFFFF6FE29
:100FC00008ED00E010B50121C54800F008FA00283E
:100FD0007ED0C4480078401CC2490870C2480068EE
:100FE000401CC1490860C148007840B1BF48007842
:100FF000642804DCBD480078401CBC490870BB482C
:10100000007864280ADDBA480078022803D0B8487E
:101010000078032802D10420B5490870B14800784F
:101020000A2190FBF1F201FB120008B9FFF7C8F9A1
:10103000B0488078B049098888420DDA0120AF496C
:101040000860AF49C1F89001AC4908310860091D3A
:101050000860AC4908704BE0A6484078A64909886A
:1010600088420EDA0020A54908600120A449C1F891
:101070009001A24908310860091D0860A149087063
:1010800036E09C4800789C49098888420EDA0020A6
:101090009A4908609A49C1F890010120974908319E
:1010A0000860091D08609749087021E08D480078A4
:1010B000642810DA0020914908609149C1F8900134
:1010C0008E49083108600120091D08608D4900E043
:1010D00005E108700CE00020884908608849C1F8E3
:1010E0009001864908310860091D0860854908702B
:1010F0007D480068512831DD7B48006865282DDB7C
:1011000081480078012811D1002080490870012011
:101110007549086000207C4908707A48007808B159
:10112000012000E000207A49086017E07748007845
:10113000022808DA75480078401C744908705B2062
:10114000694908600AE051206749086000206E493B
:1011500008706F490860012065490870624800689E
:1011600001281FD0604800680B281BD05E4800682B
:10117000152817D05C4800681F2813D05A4800680B
:1011800029280FD05848006833280BD056480068EB
:101190003D2807D054480068472803D052480068CB
:1011A000512874D152480078012806D002281ED058
:1011B000032837D0042871D154E0A0205549087085
:1011C0000846017847F64B20FFF798F94D4800781C
:1011D00008B1012000E000204D49091F08600020EF
:1011E0004D49C1F898014A49091D086070E0B020D6
:1011F000484908700846017847F64B20FFF77EF90A
:1012000000204349091F08603E48007808B10120CA
:1012100000E000203E490831086000203E49C1F846
:10122000940155E0C0203B4908700846017847F614
:101230004B20FFF763F93348007808B1012000E044
:1012400000203349091F08602E48007808B10120AA
:1012500000E000202E490831086000202E49C1F826
:10126000940135E0D0202B4908700846017847F6F4
:101270004B20FFF743F900202549091F0860264944
:10128000C1F898011F48007818B1012002E020E061
:1012900004E000201E49091D086019E0A0201D4936
:1012A00008700846017847F64B20FFF727F91548E4
:1012B000007808B1012000E000201549091F0860EE
:1012C00000201549C1F898011149091D086000BFA7
:1012D00000BF00F0F1F80121014800F071F810BDE5
:1012E000000400405200002038000020560000207A
:1012F000180000205C000020620000208C81214248
:1013000000802142600000201900002059000020C8
:10131000900121425F000020000021427FB5054678
:101320000C4601210220FFF707FDADF80850ADF88B
:1013300004400020ADF80A00ADF8060001A90D48F0
:1013400000F068F8012211460A4800F059F81D2003
:101350008DF8000000208DF8010001208DF80200BA
:101360008DF803006846FFF793FC0121014800F067
:101370002AF87FBD0004004010B501210D4800F09F
:101380002EF890B10C48007828B10B480078401E28
:101390000949087009E00020084908600021054853
:1013A00000F011F80020044908700121014800F004
:1013B00007F810BD0008004051000020B001214294
:1013C000CA430282704721B1028842F001020280C2
:1013D00004E002884FF6FE731A400280704730B571
:1013E0000246002000230024158A05EA010395899E
:1013F00005EA010413B10CB1012000E0002030BD6A
:101400001AB183890B43838102E083898B438381F3
:1014100070470000002202881D4B98420ED01D4BE1
:1014200098420BD0B0F1804F08D01B4B984205D0AA
:101430001A4B984202D01A4B984204D14FF68F7340
:101440001A404B881A43174B984207D0164B9842C4
:1014500004D04FF6FF431A40CB881A4302808B8892
:1014600083850B8803850A4B98420BD0094B984221
:1014700008D00E4B984205D00D4B984202D00D4B30
:10148000984201D10B7A03860123838270470000C2
:10149000002C0140003401400004004000080040DE
:1014A000000C0040001000400014004000400140CB
:1014B000004401400048014016480078642803D0E9
:1014C00014480078C8280BDB13480078401C1249E8
:1014D000087010480078C82802DB00200D49087009
:1014E0000D4800783C2807DB00200B4908700B48AA
:1014F0000078401C09490870084800783C2807DB40
:1015000000200649087006480078401C044908700D
:1015100070470000520000205300002054000020BB
:101520005500002010B501200849087040F22551EF
:10153000074800F033F840B1054800F0EBF80549E2
:1015400008702021024800F007F810BD19000020A3
:10155000003801403C00002001F40072B2F5007F29
:1015600000D100BFCA430280704721B1828942F492
:101570000052828104E082894DF6FF731A40828115
:10158000704702460020B1F5007F00D100BF1388EC
:101590000B400BB1012000E00020704770B50246FF
:1015A000002400230025002040F66A16B14200D135
:1015B00000BFC1F3421501F01F03012606FA03F331
:1015C000012D02D19689334006E0022D02D1168A00
:1015D000334001E0968A33400C12012606FA04F4E7
:1015E0001688344013B10CB1012000E0002070BD1A
:1015F000F0B50346002400260025002040F66A17B7
:10160000B94200D100BF1846C1F3421401F01F06D1
:10161000012707FA06F5012C01D10C3004E0022C59
:1016200001D1103000E014301AB107682F43076071
:1016300002E00768AF430760F0BD00002DE9F04706
:1016400086B005460E460024A24600BFA1460027EC
:10165000B08900B100BF2F462C8A4CF6FF700440C1
:10166000F08804432C82AC894EF6F3100440B08815
:1016700031890843718908430443AC81AC8A4FF631
:10168000FF400440B0890443AC8201A8FFF774FB1B
:101690001F48874202D1DDF810A001E0DDF80CA060
:1016A000A88900F4004040B10AEBCA0000EB0A1020
:1016B00031684900B0FBF1F807E00AEBCA0000EB23
:1016C0000A1031688900B0FBF1F86420B8FBF0F033
:1016D00004012009642101FB1089A88900F400405D
:1016E00040B1322000EBC900B0FBF1F000F0070080
:1016F000044308E0322000EB09106421B0FBF1F054
:1017000000F00F0004432C8106B0BDE8F087000014
:101710000038014001468888C0F308007047C1F3D3
:1017200008028280704700BFFEE7014600BF704795
:1017300010B56FF00400FFF7FFFB0A4800680A4984
:10174000B0FBF1F0094908700846007800EB400151
:10175000C1EBC0104FF6FF7101EAC00004490880D8
:1017600010BD00000400002000127A002E000020AE
:10177000300000200146114A12884A434FF0E0230E
:101780005A6100229A611A46126942F001021A61F6
:1017900000BF4FF0E022106900F001021AB100F41E
:1017A0008032002AF5D04FF0E022126922F00102C7
:1017B0004FF0E0231A6100229A6170473000002048
:1017C000FEF7CEFE01E0FFF74BF8FCE710B586B060
:1017D0000446012144F20400FFF7BEFA4FF4007002
:1017E000ADF8140003208DF8160018208DF81700AE
:1017F00005A91E48FFF72AF94FF48060ADF81400E0
:1018000003208DF8160004208DF8170005A917484D
:10181000FFF71CF925208DF8000000208DF801004D
:101820008DF8020001208DF803006846FFF730FABA
:1018300001940020ADF80800ADF80A00ADF80C00E6
:10184000ADF810000C20ADF80E0001A90848FFF714
:10185000F5FE012240F225510548FFF7C9FE01219E
:101860000348FFF782FE06B010BD000000080140EB
:101870000038014021F00042A2F16052B2F5801F11
:1018800001F0004328BFD2F17F6C0BD95FEA001C46
:1018900043EAC20242EB507018BF704728BF20F0E5
:1018A00001007047B2F5801FBCBF184670474FEA71
:1018B000410C1CF5001F02D2084600F082B970B539
:1018C00000F0C6F800000089FFF7F6BF4FF00040B7
:1018D000A0F580007047B0FA80F310FA03F10AD047
:1018E000C3F11D0303F580634FEA41504FEA0352F1
:1018F00002EBD12170474FF000007047DFF848C17C
:1019000070B51CEA111E1EBF1CEA13159EEA0C0FCF
:1019100095EA0C0F00F06F8081EA030423EA4C1370
:101920004EEAD47E21EA4C1141F4801143F4801335
:10193000AE44A1FB024CA0FB0365AEF17F7E3619DD
:1019400055EB0C05A1FB034C4CF10003A0FB021C62
:1019500016EB0C06654153F10003094218BF46F02F
:10196000010613F4007F0BD14FEA03314FEA053033
:10197000340341EA155140EA16506FF003020AE0C1
:101980004FEAC3214FEAC520F40241EA555140EA2B
:1019900056506FF0020202EB2E4201EB025585EA2F
:1019A000CE710AD05FEA440C18BF24F0004450F115
:1019B000000041F1000120EAD47040F2FE7C624553
:1019C00000D270BDA84214BF4FF080444FF0404495
:1019D000002E08BF0024BEF1806FA8BFA1F1C04156
:1019E000BDE8704080F282804FF0000001F1C041FC
:1019F00001F0004170479EEA0C0F0CEA131518BF66
:101A000095EA0C0F06D04FF0000081EA030E0EF0AD
:101A1000004170BD00F01CF88900013E00F007B8DD
:101A200000F009B84FEA430C5FEA5C5C08D081EA39
:101A3000030100F05BB84FEA410C5FEA5C5CF6D151
:101A40004FF00000014970470000FF070000F87FD9
:101A50000EF1020E2EF0030E5EF8046B364205D432
:101A6000012A43EB030515F5001F12D8012841EBAD
:101A7000010C1CF5001F0CD80ED14FEAD17C15F5D6
:101A8000001F0CEB4C0C0CF1020C08BF4CEBD37C90
:101A900004E04FF0080C01E04FEAD37C0CEB4C055E
:101AA00026FA05F606F00706B6F1040C06D20EEB90
:101AB000860CBDE870404CF0010C6047DFE80CF08C
:101AC000090B02024FF000414FF00000A1F5002188
:101AD00070BD19461046012851EB010418BFD4F51A
:101AE000001484BF002001F0004170BD0808A0F57B
:101AF00000114FEA31017047C10DD1F19E0206DBA2
:101B00004FEA002343F0004323FA02F070470042FB
:101B100007D54FEA4001B1F1FE4F02D24FF000006D
:101B2000704710B500F007F84992248000207047F4
:101B30006FEA200070470EF1020E2EF0030E5EF8E1
:101B4000044B244204D44FEA4102B2F17F4F11D832
:101B50004FEA4003B3F17F4F0CD80ED14FEAD07C4F
:101B6000B2F17F4F0CEB4C0C0CF1020C08BF4CEBAC
:101B7000D17C04E04FF0080C01E04FEAD17C0CEB83
:101B80004C0324FA03F404F00704B4F1040C06D265
:101B90000EEB840CBDE810404CF0010C6047DFE810
:101BA0000CF0070802024FF00040A0F5800010BDC5
:101BB0000846420018BFD2F1807288BF00F0004092
:101BC00010BDFF2141EAD050C0057047EC1B000852
:101BD000000000207C00000028010008681C0008AC
:101BE0007C0000206C06000044010008000000009A
:101BF00000A24A04000000000000000001020304EB
:101C000006070809010000000000010203040102A8
:101C1000030406070809020406080000000000008B
:101C200000000000000000000000000000000000B4
:101C300000000000000000000000000000000000A4
:101C40000000000000000000424B500001000000B6
:101C5000FEFDFB3F065B4F666D7D077F6FBF86DB3A
:081C6000CFE6EDFD87FFEF0068
:04000005080000ED02
:00000001FF
